20201019-01:42:48.526908000 : 8=FIX.4.4|9=151|35=A|34=1|49=lpwp6653|52=20201019-01:42:48.526|56=BITSTAMP|98=0|108=30|141=Y|553=w8poYpKKww6gHqclxdzxYYcVnHODFnAz|554=eSEMPHiajtPWk3ZvYXFx4MhziuzqIyRc|10=173|
20201019-01:42:49.748839000 : 8=FIX.4.4|9=77|35=A|49=BITSTAMP|56=lpwp6653|34=1|52=20201019-01:42:49.616|98=0|108=30|141=Y|10=044|
20201019-01:43:15.529708000 : 8=FIX.4.4|9=151|35=A|34=1|49=lpwp6653|52=20201019-01:43:15.529|56=BITSTAMP|98=0|108=30|141=Y|553=w8poYpKKww6gHqclxdzxYYcVnHODFnAz|554=eSEMPHiajtPWk3ZvYXFx4MhziuzqIyRc|10=171|
20201019-01:43:16.284644000 : 8=FIX.4.4|9=77|35=A|49=BITSTAMP|56=lpwp6653|34=1|52=20201019-01:43:16.179|98=0|108=30|141=Y|10=043|
20201019-01:43:16.285498000 : 8=FIX.4.4|9=123|35=D|34=2|49=lpwp6653|52=20201019-01:43:16.285|56=BITSTAMP|11=1|38=100|40=1|44=0|54=1|55=BTC/USD|59=1|60=20201019-01:43:16|10=023|
20201019-01:43:16.588451000 : 8=FIX.4.4|9=217|35=8|49=BITSTAMP|56=lpwp6653|34=2|52=20201019-01:43:16.483|37=N/A|11=1|17=1|8|150=8|39=8|103=3|55=BTC/USD|54=1|151=0|14=0|6=0|60=20201019-01:43:16|58=You can only buy 0E-8 BTC. Check your account balance for details.|10=215|
