8=FIX.4.4|9=151|35=A|34=1|49=lpwp6653|52=20201018-22:36:12.193|56=BITSTAMP|98=0|108=30|141=Y|553=w8poYpKKww6gHqclxdzxYYcVnHODFnAz|554=eSEMPHiajtPWk3ZvYXFx4MhziuzqIyRc|10=169|8=FIX.4.4|9=118|35=V|34=2|49=lpwp6653|52=20201018-22:36:13.426|56=BITSTAMP|146=1|55=BTC/USD|262=1|263=1|264=0|267=3|269=0|269=1|269=2|10=038|